{
  "_format": "hh-sol-artifact-1",
  "contractName": "CustomForwarder",
  "sourceName": "contracts/CustomForwarder.sol",
  "abi": [
    {
      "inputs": [],
      "stateMutability": "nonpayable",
      "type": "constructor"
    },
    {
      "inputs": [],
      "name": "ECDSAInvalidSignature",
      "type": "error"
    },
    {
      "inputs": [
        {
          "internalType": "uint256",
          "name": "length",
          "type": "uint256"
        }
      ],
      "name": "ECDSAInvalidSignatureLength",
      "type": "error"
    },
    {
      "inputs": [
        {
          "internalType": "bytes32",
          "name": "s",
          "type": "bytes32"
        }
      ],
      "name": "ECDSAInvalidSignatureS",
      "type": "error"
    },
    {
      "inputs": [],
      "name": "InvalidShortString",
      "type": "error"
    },
    {
      "inputs": [
        {
          "internalType": "string",
          "name": "str",
          "type": "string"
        }
      ],
      "name": "StringTooLong",
      "type": "error"
    },
    {
      "anonymous": false,
      "inputs": [],
      "name": "EIP712DomainChanged",
      "type": "event"
    },
    {
      "inputs": [],
      "name": "eip712Domain",
      "outputs": [
        {
          "internalType": "bytes1",
          "name": "fields",
          "type": "bytes1"
        },
        {
          "internalType": "string",
          "name": "name",
          "type": "string"
        },
        {
          "internalType": "string",
          "name": "version",
          "type": "string"
        },
        {
          "internalType": "uint256",
          "name": "chainId",
          "type": "uint256"
        },
        {
          "internalType": "address",
          "name": "verifyingContract",
          "type": "address"
        },
        {
          "internalType": "bytes32",
          "name": "salt",
          "type": "bytes32"
        },
        {
          "internalType": "uint256[]",
          "name": "extensions",
          "type": "uint256[]"
        }
      ],
      "stateMutability": "view",
      "type": "function"
    },
    {
      "inputs": [
        {
          "components": [
            {
              "internalType": "address",
              "name": "from",
              "type": "address"
            },
            {
              "internalType": "address",
              "name": "to",
              "type": "address"
            },
            {
              "internalType": "uint256",
              "name": "value",
              "type": "uint256"
            },
            {
              "internalType": "uint256",
              "name": "gas",
              "type": "uint256"
            },
            {
              "internalType": "uint256",
              "name": "nonce",
              "type": "uint256"
            },
            {
              "internalType": "bytes",
              "name": "data",
              "type": "bytes"
            }
          ],
          "internalType": "struct CustomForwarder.ForwardRequest",
          "name": "req",
          "type": "tuple"
        },
        {
          "internalType": "bytes",
          "name": "signature",
          "type": "bytes"
        }
      ],
      "name": "execute",
      "outputs": [
        {
          "internalType": "bool",
          "name": "",
          "type": "bool"
        },
        {
          "internalType": "bytes",
          "name": "",
          "type": "bytes"
        }
      ],
      "stateMutability": "payable",
      "type": "function"
    },
    {
      "inputs": [
        {
          "internalType": "address",
          "name": "from",
          "type": "address"
        }
      ],
      "name": "getNonce",
      "outputs": [
        {
          "internalType": "uint256",
          "name": "",
          "type": "uint256"
        }
      ],
      "stateMutability": "view",
      "type": "function"
    },
    {
      "inputs": [
        {
          "components": [
            {
              "internalType": "address",
              "name": "from",
              "type": "address"
            },
            {
              "internalType": "address",
              "name": "to",
              "type": "address"
            },
            {
              "internalType": "uint256",
              "name": "value",
              "type": "uint256"
            },
            {
              "internalType": "uint256",
              "name": "gas",
              "type": "uint256"
            },
            {
              "internalType": "uint256",
              "name": "nonce",
              "type": "uint256"
            },
            {
              "internalType": "bytes",
              "name": "data",
              "type": "bytes"
            }
          ],
          "internalType": "struct CustomForwarder.ForwardRequest",
          "name": "req",
          "type": "tuple"
        },
        {
          "internalType": "bytes",
          "name": "signature",
          "type": "bytes"
        }
      ],
      "name": "verify",
      "outputs": [
        {
          "internalType": "bool",
          "name": "",
          "type": "bool"
        }
      ],
      "stateMutability": "view",
      "type": "function"
    }
  ],
  "bytecode": "0x6101606040523480156200001257600080fd5b50604080518082018252600f81526e21bab9ba37b6a337b93bb0b93232b960891b60208083019190915282518084019093526005835264302e302e3160d81b90830152906200006382600062000111565b610120526200007481600162000111565b61014052815160208084019190912060e052815190820120610100524660a0526200010260e05161010051604080517f8b73c3c69bb8fe3d512ecc4cf759cc79239f7b179b0ffacaa9a75d522b39400f60208201529081019290925260608201524660808201523060a082015260009060c00160405160208183030381529060405280519060200120905090565b60805250503060c0526200037f565b6000602083511015620001315762000129836200014a565b905062000144565b816200013e84826200023d565b5060ff90505b92915050565b600080829050601f8151111562000181578260405163305a27a960e01b815260040162000178919062000309565b60405180910390fd5b80516200018e826200035a565b179392505050565b634e487b7160e01b600052604160045260246000fd5b600181811c90821680620001c157607f821691505b602082108103620001e257634e487b7160e01b600052602260045260246000fd5b50919050565b601f82111562000238576000816000526020600020601f850160051c81016020861015620002135750805b601f850160051c820191505b8181101562000234578281556001016200021f565b5050505b505050565b81516001600160401b0381111562000259576200025962000196565b62000271816200026a8454620001ac565b84620001e8565b602080601f831160018114620002a95760008415620002905750858301515b600019600386901b1c1916600185901b17855562000234565b600085815260208120601f198616915b82811015620002da57888601518255948401946001909101908401620002b9565b5085821015620002f95787850151600019600388901b60f8161c191681555b5050505050600190811b01905550565b60006020808352835180602085015260005b8181101562000339578581018301518582016040015282016200031b565b506000604082860101526040601f19601f8301168501019250505092915050565b80516020808301519190811015620001e25760001960209190910360031b1b16919050565b60805160a05160c05160e051610100516101205161014051610c7a620003da600039600061049d0152600061046b015260006106a50152600061067d015260006105d8015260006106020152600061062c0152610c7a6000f3fe60806040526004361061003f5760003560e01c80632d0335ab1461004457806347153f821461008d57806384b0196e146100ae578063bf5d3bdb146100d6575b600080fd5b34801561005057600080fd5b5061007a61005f366004610936565b6001600160a01b031660009081526002602052604090205490565b6040519081526020015b60405180910390f35b6100a061009b366004610966565b610106565b604051610084929190610a55565b3480156100ba57600080fd5b506100c361029f565b6040516100849796959493929190610a78565b3480156100e257600080fd5b506100f66100f1366004610966565b6102e5565b6040519015158152602001610084565b600060606101158585856102e5565b6101805760405162461bcd60e51b815260206004820152603160248201527f437573746f6d466f727761726465723a207369676e617475726520646f6573206044820152701b9bdd081b585d18da081c995c5d595cdd607a1b60648201526084015b60405180910390fd5b61018f60808601356001610b11565b600260006101a06020890189610936565b6001600160a01b03166001600160a01b03168152602001908152602001600020819055506000808660200160208101906101da9190610936565b6001600160a01b0316606088013560408901356101fa60a08b018b610b32565b61020760208d018d610936565b60405160200161021993929190610b80565b60408051601f198184030181529082905261023391610ba6565b600060405180830381858888f193505050503d8060008114610271576040519150601f19603f3d011682016040523d82523d6000602084013e610276565b606091505b50909250905061028b603f6060890135610bc2565b5a1161029357fe5b90969095509350505050565b6000606080600080600060606102b3610464565b6102bb610496565b60408051600080825260208201909252600f60f81b9b939a50919850469750309650945092509050565b6000806103f884848080601f0160208091040260200160405190810160405280939291908181526020018383808284376000920191909152506103f292507fdd8f4b70b0f4393e889bd39128a30628a78b61816a9eb8199759e7a349657e489150610355905060208a018a610936565b61036560408b0160208c01610936565b60408b013560608c013560808d013561038160a08f018f610b32565b60405161038f929190610be4565b6040805191829003822060208301989098526001600160a01b0396871690820152949093166060850152608084019190915260a083015260c082015260e081019190915261010001604051602081830303815290604052805190602001206104c3565b906104f6565b90506080850135600260006104106020890189610936565b6001600160a01b03166001600160a01b031681526020019081526020016000205414801561045b57506104466020860186610936565b6001600160a01b0316816001600160a01b0316145b95945050505050565b60606104917f00000000000000000000000000000000000000000000000000000000000000006000610520565b905090565b60606104917f00000000000000000000000000000000000000000000000000000000000000006001610520565b60006104f06104d06105cb565b8360405161190160f01b8152600281019290925260228201526042902090565b92915050565b60008060008061050686866106f6565b9250925092506105168282610743565b5090949350505050565b606060ff831461053a5761053383610800565b90506104f0565b81805461054690610bf4565b80601f016020809104026020016040519081016040528092919081815260200182805461057290610bf4565b80156105bf5780601f10610594576101008083540402835291602001916105bf565b820191906000526020600020905b8154815290600101906020018083116105a257829003601f168201915b505050505090506104f0565b6000306001600160a01b037f00000000000000000000000000000000000000000000000000000000000000001614801561062457507f000000000000000000000000000000000000000000000000000000000000000046145b1561064e57507f000000000000000000000000000000000000000000000000000000000000000090565b610491604080517f8b73c3c69bb8fe3d512ecc4cf759cc79239f7b179b0ffacaa9a75d522b39400f60208201527f0000000000000000000000000000000000000000000000000000000000000000918101919091527f000000000000000000000000000000000000000000000000000000000000000060608201524660808201523060a082015260009060c00160405160208183030381529060405280519060200120905090565b600080600083516041036107305760208401516040850151606086015160001a6107228882858561083f565b95509550955050505061073c565b50508151600091506002905b9250925092565b600082600381111561075757610757610c2e565b03610760575050565b600182600381111561077457610774610c2e565b036107925760405163f645eedf60e01b815260040160405180910390fd5b60028260038111156107a6576107a6610c2e565b036107c75760405163fce698f760e01b815260048101829052602401610177565b60038260038111156107db576107db610c2e565b036107fc576040516335e2f38360e21b815260048101829052602401610177565b5050565b6060600061080d8361090e565b604080516020808252818301909252919250600091906020820181803683375050509182525060208101929092525090565b600080807f7fffffffffffffffffffffffffffffff5d576e7357a4501ddfe92f46681b20a084111561087a5750600091506003905082610904565b604080516000808252602082018084528a905260ff891692820192909252606081018790526080810186905260019060a0016020604051602081039080840390855afa1580156108ce573d6000803e3d6000fd5b5050604051601f1901519150506001600160a01b0381166108fa57506000925060019150829050610904565b9250600091508190505b9450945094915050565b600060ff8216601f8111156104f057604051632cd44ac360e21b815260040160405180910390fd5b60006020828403121561094857600080fd5b81356001600160a01b038116811461095f57600080fd5b9392505050565b60008060006040848603121561097b57600080fd5b833567ffffffffffffffff8082111561099357600080fd5b9085019060c082880312156109a757600080fd5b909350602085013590808211156109bd57600080fd5b818601915086601f8301126109d157600080fd5b8135818111156109e057600080fd5b8760208285010111156109f257600080fd5b6020830194508093505050509250925092565b60005b83811015610a20578181015183820152602001610a08565b50506000910152565b60008151808452610a41816020860160208601610a05565b601f01601f19169290920160200192915050565b8215158152604060208201526000610a706040830184610a29565b949350505050565b60ff60f81b881681526000602060e06020840152610a9960e084018a610a29565b8381036040850152610aab818a610a29565b606085018990526001600160a01b038816608086015260a0850187905284810360c08601528551808252602080880193509091019060005b81811015610aff57835183529284019291840191600101610ae3565b50909c9b505050505050505050505050565b808201808211156104f057634e487b7160e01b600052601160045260246000fd5b6000808335601e19843603018112610b4957600080fd5b83018035915067ffffffffffffffff821115610b6457600080fd5b602001915036819003821315610b7957600080fd5b9250929050565b8284823760609190911b6bffffffffffffffffffffffff19169101908152601401919050565b60008251610bb8818460208701610a05565b9190910192915050565b600082610bdf57634e487b7160e01b600052601260045260246000fd5b500490565b8183823760009101908152919050565b600181811c90821680610c0857607f821691505b602082108103610c2857634e487b7160e01b600052602260045260246000fd5b50919050565b634e487b7160e01b600052602160045260246000fdfea26469706673582212203afe7b44e7fea202b517987144ddf1b89a9043d67a92f3937edb9a943d092f2564736f6c63430008160033",
  "linkReferences": {},
  "deployedLinkReferences": {}
}