{
  "_format": "hh-sol-artifact-1",
  "contractName": "ROXNToken",
  "sourceName": "contracts/ROXNToken.sol",
  "abi": [
    {
      "inputs": [],
      "stateMutability": "nonpayable",
      "type": "constructor"
    },
    {
      "inputs": [],
      "name": "AccessControlBadConfirmation",
      "type": "error"
    },
    {
      "inputs": [
        {
          "internalType": "address",
          "name": "account",
          "type": "address"
        },
        {
          "internalType": "bytes32",
          "name": "neededRole",
          "type": "bytes32"
        }
      ],
      "name": "AccessControlUnauthorizedAccount",
      "type": "error"
    },
    {
      "inputs": [
        {
          "internalType": "address",
          "name": "target",
          "type": "address"
        }
      ],
      "name": "AddressEmptyCode",
      "type": "error"
    },
    {
      "inputs": [
        {
          "internalType": "address",
          "name": "implementation",
          "type": "address"
        }
      ],
      "name": "ERC1967InvalidImplementation",
      "type": "error"
    },
    {
      "inputs": [],
      "name": "ERC1967NonPayable",
      "type": "error"
    },
    {
      "inputs": [
        {
          "internalType": "address",
          "name": "spender",
          "type": "address"
        },
        {
          "internalType": "uint256",
          "name": "allowance",
          "type": "uint256"
        },
        {
          "internalType": "uint256",
          "name": "needed",
          "type": "uint256"
        }
      ],
      "name": "ERC20InsufficientAllowance",
      "type": "error"
    },
    {
      "inputs": [
        {
          "internalType": "address",
          "name": "sender",
          "type": "address"
        },
        {
          "internalType": "uint256",
          "name": "balance",
          "type": "uint256"
        },
        {
          "internalType": "uint256",
          "name": "needed",
          "type": "uint256"
        }
      ],
      "name": "ERC20InsufficientBalance",
      "type": "error"
    },
    {
      "inputs": [
        {
          "internalType": "address",
          "name": "approver",
          "type": "address"
        }
      ],
      "name": "ERC20InvalidApprover",
      "type": "error"
    },
    {
      "inputs": [
        {
          "internalType": "address",
          "name": "receiver",
          "type": "address"
        }
      ],
      "name": "ERC20InvalidReceiver",
      "type": "error"
    },
    {
      "inputs": [
        {
          "internalType": "address",
          "name": "sender",
          "type": "address"
        }
      ],
      "name": "ERC20InvalidSender",
      "type": "error"
    },
    {
      "inputs": [
        {
          "internalType": "address",
          "name": "spender",
          "type": "address"
        }
      ],
      "name": "ERC20InvalidSpender",
      "type": "error"
    },
    {
      "inputs": [],
      "name": "EnforcedPause",
      "type": "error"
    },
    {
      "inputs": [],
      "name": "ExpectedPause",
      "type": "error"
    },
    {
      "inputs": [],
      "name": "FailedCall",
      "type": "error"
    },
    {
      "inputs": [],
      "name": "InvalidInitialization",
      "type": "error"
    },
    {
      "inputs": [],
      "name": "NotInitializing",
      "type": "error"
    },
    {
      "inputs": [],
      "name": "UUPSUnauthorizedCallContext",
      "type": "error"
    },
    {
      "inputs": [
        {
          "internalType": "bytes32",
          "name": "slot",
          "type": "bytes32"
        }
      ],
      "name": "UUPSUnsupportedProxiableUUID",
      "type": "error"
    },
    {
      "anonymous": false,
      "inputs": [
        {
          "indexed": true,
          "internalType": "address",
          "name": "owner",
          "type": "address"
        },
        {
          "indexed": true,
          "internalType": "address",
          "name": "spender",
          "type": "address"
        },
        {
          "indexed": false,
          "internalType": "uint256",
          "name": "value",
          "type": "uint256"
        }
      ],
      "name": "Approval",
      "type": "event"
    },
    {
      "anonymous": false,
      "inputs": [
        {
          "indexed": false,
          "internalType": "uint64",
          "name": "version",
          "type": "uint64"
        }
      ],
      "name": "Initialized",
      "type": "event"
    },
    {
      "anonymous": false,
      "inputs": [
        {
          "indexed": false,
          "internalType": "address",
          "name": "account",
          "type": "address"
        }
      ],
      "name": "Paused",
      "type": "event"
    },
    {
      "anonymous": false,
      "inputs": [
        {
          "indexed": true,
          "internalType": "bytes32",
          "name": "role",
          "type": "bytes32"
        },
        {
          "indexed": true,
          "internalType": "bytes32",
          "name": "previousAdminRole",
          "type": "bytes32"
        },
        {
          "indexed": true,
          "internalType": "bytes32",
          "name": "newAdminRole",
          "type": "bytes32"
        }
      ],
      "name": "RoleAdminChanged",
      "type": "event"
    },
    {
      "anonymous": false,
      "inputs": [
        {
          "indexed": true,
          "internalType": "bytes32",
          "name": "role",
          "type": "bytes32"
        },
        {
          "indexed": true,
          "internalType": "address",
          "name": "account",
          "type": "address"
        },
        {
          "indexed": true,
          "internalType": "address",
          "name": "sender",
          "type": "address"
        }
      ],
      "name": "RoleGranted",
      "type": "event"
    },
    {
      "anonymous": false,
      "inputs": [
        {
          "indexed": true,
          "internalType": "bytes32",
          "name": "role",
          "type": "bytes32"
        },
        {
          "indexed": true,
          "internalType": "address",
          "name": "account",
          "type": "address"
        },
        {
          "indexed": true,
          "internalType": "address",
          "name": "sender",
          "type": "address"
        }
      ],
      "name": "RoleRevoked",
      "type": "event"
    },
    {
      "anonymous": false,
      "inputs": [
        {
          "indexed": true,
          "internalType": "address",
          "name": "from",
          "type": "address"
        },
        {
          "indexed": true,
          "internalType": "address",
          "name": "to",
          "type": "address"
        },
        {
          "indexed": false,
          "internalType": "uint256",
          "name": "value",
          "type": "uint256"
        }
      ],
      "name": "Transfer",
      "type": "event"
    },
    {
      "anonymous": false,
      "inputs": [
        {
          "indexed": false,
          "internalType": "address",
          "name": "account",
          "type": "address"
        }
      ],
      "name": "Unpaused",
      "type": "event"
    },
    {
      "anonymous": false,
      "inputs": [
        {
          "indexed": true,
          "internalType": "address",
          "name": "implementation",
          "type": "address"
        }
      ],
      "name": "Upgraded",
      "type": "event"
    },
    {
      "inputs": [],
      "name": "BURNER_ROLE",
      "outputs": [
        {
          "internalType": "bytes32",
          "name": "",
          "type": "bytes32"
        }
      ],
      "stateMutability": "view",
      "type": "function"
    },
    {
      "inputs": [],
      "name": "DEFAULT_ADMIN_ROLE",
      "outputs": [
        {
          "internalType": "bytes32",
          "name": "",
          "type": "bytes32"
        }
      ],
      "stateMutability": "view",
      "type": "function"
    },
    {
      "inputs": [],
      "name": "MAX_SUPPLY",
      "outputs": [
        {
          "internalType": "uint256",
          "name": "",
          "type": "uint256"
        }
      ],
      "stateMutability": "view",
      "type": "function"
    },
    {
      "inputs": [],
      "name": "MINTER_ROLE",
      "outputs": [
        {
          "internalType": "bytes32",
          "name": "",
          "type": "bytes32"
        }
      ],
      "stateMutability": "view",
      "type": "function"
    },
    {
      "inputs": [],
      "name": "PAUSER_ROLE",
      "outputs": [
        {
          "internalType": "bytes32",
          "name": "",
          "type": "bytes32"
        }
      ],
      "stateMutability": "view",
      "type": "function"
    },
    {
      "inputs": [],
      "name": "UPGRADER_ROLE",
      "outputs": [
        {
          "internalType": "bytes32",
          "name": "",
          "type": "bytes32"
        }
      ],
      "stateMutability": "view",
      "type": "function"
    },
    {
      "inputs": [],
      "name": "UPGRADE_INTERFACE_VERSION",
      "outputs": [
        {
          "internalType": "string",
          "name": "",
          "type": "string"
        }
      ],
      "stateMutability": "view",
      "type": "function"
    },
    {
      "inputs": [
        {
          "internalType": "address",
          "name": "owner",
          "type": "address"
        },
        {
          "internalType": "address",
          "name": "spender",
          "type": "address"
        }
      ],
      "name": "allowance",
      "outputs": [
        {
          "internalType": "uint256",
          "name": "",
          "type": "uint256"
        }
      ],
      "stateMutability": "view",
      "type": "function"
    },
    {
      "inputs": [
        {
          "internalType": "address",
          "name": "spender",
          "type": "address"
        },
        {
          "internalType": "uint256",
          "name": "value",
          "type": "uint256"
        }
      ],
      "name": "approve",
      "outputs": [
        {
          "internalType": "bool",
          "name": "",
          "type": "bool"
        }
      ],
      "stateMutability": "nonpayable",
      "type": "function"
    },
    {
      "inputs": [
        {
          "internalType": "address",
          "name": "account",
          "type": "address"
        }
      ],
      "name": "balanceOf",
      "outputs": [
        {
          "internalType": "uint256",
          "name": "",
          "type": "uint256"
        }
      ],
      "stateMutability": "view",
      "type": "function"
    },
    {
      "inputs": [
        {
          "internalType": "uint256",
          "name": "value",
          "type": "uint256"
        }
      ],
      "name": "burn",
      "outputs": [],
      "stateMutability": "nonpayable",
      "type": "function"
    },
    {
      "inputs": [
        {
          "internalType": "address",
          "name": "from",
          "type": "address"
        },
        {
          "internalType": "uint256",
          "name": "amount",
          "type": "uint256"
        }
      ],
      "name": "burnFrom",
      "outputs": [],
      "stateMutability": "nonpayable",
      "type": "function"
    },
    {
      "inputs": [],
      "name": "decimals",
      "outputs": [
        {
          "internalType": "uint8",
          "name": "",
          "type": "uint8"
        }
      ],
      "stateMutability": "view",
      "type": "function"
    },
    {
      "inputs": [
        {
          "internalType": "bytes32",
          "name": "role",
          "type": "bytes32"
        }
      ],
      "name": "getRoleAdmin",
      "outputs": [
        {
          "internalType": "bytes32",
          "name": "",
          "type": "bytes32"
        }
      ],
      "stateMutability": "view",
      "type": "function"
    },
    {
      "inputs": [
        {
          "internalType": "bytes32",
          "name": "role",
          "type": "bytes32"
        },
        {
          "internalType": "address",
          "name": "account",
          "type": "address"
        }
      ],
      "name": "grantRole",
      "outputs": [],
      "stateMutability": "nonpayable",
      "type": "function"
    },
    {
      "inputs": [
        {
          "internalType": "bytes32",
          "name": "role",
          "type": "bytes32"
        },
        {
          "internalType": "address",
          "name": "account",
          "type": "address"
        }
      ],
      "name": "hasRole",
      "outputs": [
        {
          "internalType": "bool",
          "name": "",
          "type": "bool"
        }
      ],
      "stateMutability": "view",
      "type": "function"
    },
    {
      "inputs": [
        {
          "internalType": "address",
          "name": "admin",
          "type": "address"
        }
      ],
      "name": "initialize",
      "outputs": [],
      "stateMutability": "nonpayable",
      "type": "function"
    },
    {
      "inputs": [
        {
          "internalType": "address",
          "name": "to",
          "type": "address"
        },
        {
          "internalType": "uint256",
          "name": "amount",
          "type": "uint256"
        }
      ],
      "name": "mint",
      "outputs": [],
      "stateMutability": "nonpayable",
      "type": "function"
    },
    {
      "inputs": [],
      "name": "name",
      "outputs": [
        {
          "internalType": "string",
          "name": "",
          "type": "string"
        }
      ],
      "stateMutability": "view",
      "type": "function"
    },
    {
      "inputs": [],
      "name": "pause",
      "outputs": [],
      "stateMutability": "nonpayable",
      "type": "function"
    },
    {
      "inputs": [],
      "name": "paused",
      "outputs": [
        {
          "internalType": "bool",
          "name": "",
          "type": "bool"
        }
      ],
      "stateMutability": "view",
      "type": "function"
    },
    {
      "inputs": [],
      "name": "proxiableUUID",
      "outputs": [
        {
          "internalType": "bytes32",
          "name": "",
          "type": "bytes32"
        }
      ],
      "stateMutability": "view",
      "type": "function"
    },
    {
      "inputs": [
        {
          "internalType": "bytes32",
          "name": "role",
          "type": "bytes32"
        },
        {
          "internalType": "address",
          "name": "callerConfirmation",
          "type": "address"
        }
      ],
      "name": "renounceRole",
      "outputs": [],
      "stateMutability": "nonpayable",
      "type": "function"
    },
    {
      "inputs": [
        {
          "internalType": "bytes32",
          "name": "role",
          "type": "bytes32"
        },
        {
          "internalType": "address",
          "name": "account",
          "type": "address"
        }
      ],
      "name": "revokeRole",
      "outputs": [],
      "stateMutability": "nonpayable",
      "type": "function"
    },
    {
      "inputs": [
        {
          "internalType": "bytes4",
          "name": "interfaceId",
          "type": "bytes4"
        }
      ],
      "name": "supportsInterface",
      "outputs": [
        {
          "internalType": "bool",
          "name": "",
          "type": "bool"
        }
      ],
      "stateMutability": "view",
      "type": "function"
    },
    {
      "inputs": [],
      "name": "symbol",
      "outputs": [
        {
          "internalType": "string",
          "name": "",
          "type": "string"
        }
      ],
      "stateMutability": "view",
      "type": "function"
    },
    {
      "inputs": [],
      "name": "totalMinted",
      "outputs": [
        {
          "internalType": "uint256",
          "name": "",
          "type": "uint256"
        }
      ],
      "stateMutability": "view",
      "type": "function"
    },
    {
      "inputs": [],
      "name": "totalSupply",
      "outputs": [
        {
          "internalType": "uint256",
          "name": "",
          "type": "uint256"
        }
      ],
      "stateMutability": "view",
      "type": "function"
    },
    {
      "inputs": [
        {
          "internalType": "address",
          "name": "to",
          "type": "address"
        },
        {
          "internalType": "uint256",
          "name": "value",
          "type": "uint256"
        }
      ],
      "name": "transfer",
      "outputs": [
        {
          "internalType": "bool",
          "name": "",
          "type": "bool"
        }
      ],
      "stateMutability": "nonpayable",
      "type": "function"
    },
    {
      "inputs": [
        {
          "internalType": "address",
          "name": "from",
          "type": "address"
        },
        {
          "internalType": "address",
          "name": "to",
          "type": "address"
        },
        {
          "internalType": "uint256",
          "name": "value",
          "type": "uint256"
        }
      ],
      "name": "transferFrom",
      "outputs": [
        {
          "internalType": "bool",
          "name": "",
          "type": "bool"
        }
      ],
      "stateMutability": "nonpayable",
      "type": "function"
    },
    {
      "inputs": [],
      "name": "unpause",
      "outputs": [],
      "stateMutability": "nonpayable",
      "type": "function"
    },
    {
      "inputs": [
        {
          "internalType": "address",
          "name": "newImplementation",
          "type": "address"
        },
        {
          "internalType": "bytes",
          "name": "data",
          "type": "bytes"
        }
      ],
      "name": "upgradeToAndCall",
      "outputs": [],
      "stateMutability": "payable",
      "type": "function"
    }
  ],
  "bytecode": "0x60a06040523060805234801561001457600080fd5b5061001d610022565b6100d4565b7ff0c57e16840df040f15088dc2f81fe391c3923bec73e23a9662efc9c229c6a00805468010000000000000000900460ff16156100725760405163f92ee8a960e01b815260040160405180910390fd5b80546001600160401b03908116146100d15780546001600160401b0319166001600160401b0390811782556040519081527fc7f505b2f371ae2175ee4913f4499e1f2633a7b5936321eed1cdaeb6115181d29060200160405180910390a15b50565b608051611c6f6100fd60003960008181610fef01528181611018015261117d0152611c6f6000f3fe6080604052600436106101e35760003560e01c80635c975abb11610102578063a9059cbb11610095578063d547741f11610064578063d547741f146105ae578063dd62ed3e146105ce578063e63ab1e9146105ee578063f72c0d8b1461061057600080fd5b8063a9059cbb14610509578063ad3cb1cc14610529578063c4d66de81461055a578063d53913931461057a57600080fd5b806391d14854116100d157806391d14854146104a957806395d89b41146104c9578063a217fddf146104de578063a2309ff8146104f357600080fd5b80635c975abb1461040c57806370a082311461043157806379cc6790146104745780638456cb591461049457600080fd5b8063313ce5671161017a57806340c10f191161014957806340c10f19146103a457806342966c68146103c45780634f1ef286146103e457806352d1902d146103f757600080fd5b8063313ce5671461033357806332cb6b0c1461034f57806336568abe1461036f5780633f4ba83a1461038f57600080fd5b806323b872dd116101b657806323b872dd1461029d578063248a9ca3146102bd578063282c51f3146102dd5780632f2ff15d1461031157600080fd5b806301ffc9a7146101e857806306fdde031461021d578063095ea7b31461023f57806318160ddd1461025f575b600080fd5b3480156101f457600080fd5b5061020861020336600461179c565b610644565b60405190151581526020015b60405180910390f35b34801561022957600080fd5b5061023261067b565b60405161021491906117ea565b34801561024b57600080fd5b5061020861025a366004611839565b61073e565b34801561026b57600080fd5b507f52c63247e1f47db19d5ce0460030c497f067ca4cebf71ba98eeadabe20bace02545b604051908152602001610214565b3480156102a957600080fd5b506102086102b8366004611863565b610756565b3480156102c957600080fd5b5061028f6102d836600461189f565b61077c565b3480156102e957600080fd5b5061028f7f3c11d16cbaffd01df69ce1c404f6340ee057498f5f00246190ea54220576a84881565b34801561031d57600080fd5b5061033161032c3660046118b8565b61079e565b005b34801561033f57600080fd5b5060405160128152602001610214565b34801561035b57600080fd5b5061028f6b033b2e3c9fd0803ce800000081565b34801561037b57600080fd5b5061033161038a3660046118b8565b6107c0565b34801561039b57600080fd5b506103316107f8565b3480156103b057600080fd5b506103316103bf366004611839565b61081b565b3480156103d057600080fd5b506103316103df36600461189f565b61092a565b6103316103f23660046118fa565b610934565b34801561040357600080fd5b5061028f610953565b34801561041857600080fd5b50600080516020611c1a8339815191525460ff16610208565b34801561043d57600080fd5b5061028f61044c3660046119bc565b6001600160a01b03166000908152600080516020611b9a833981519152602052604090205490565b34801561048057600080fd5b5061033161048f366004611839565b610970565b3480156104a057600080fd5b506103316109a4565b3480156104b557600080fd5b506102086104c43660046118b8565b6109c4565b3480156104d557600080fd5b506102326109fc565b3480156104ea57600080fd5b5061028f600081565b3480156104ff57600080fd5b5061028f60005481565b34801561051557600080fd5b50610208610524366004611839565b610a3b565b34801561053557600080fd5b50610232604051806040016040528060058152602001640352e302e360dc1b81525081565b34801561056657600080fd5b506103316105753660046119bc565b610a49565b34801561058657600080fd5b5061028f7f9f2df0fed2c77648de5860a4cc508cd0818c85b8b8a1ab4ceeef8d981c8956a681565b3480156105ba57600080fd5b506103316105c93660046118b8565b610cba565b3480156105da57600080fd5b5061028f6105e93660046119d7565b610cd6565b3480156105fa57600080fd5b5061028f600080516020611bda83398151915281565b34801561061c57600080fd5b5061028f7f189ab7a9244df0848122154315af71fe140f3db0fe014031783b0946b8c9d2e381565b60006001600160e01b03198216637965db0b60e01b148061067557506301ffc9a760e01b6001600160e01b03198316145b92915050565b7f52c63247e1f47db19d5ce0460030c497f067ca4cebf71ba98eeadabe20bace038054606091600080516020611b9a833981519152916106ba90611a01565b80601f01602080910402602001604051908101604052809291908181526020018280546106e690611a01565b80156107335780601f1061070857610100808354040283529160200191610733565b820191906000526020600020905b81548152906001019060200180831161071657829003601f168201915b505050505091505090565b60003361074c818585610d20565b5060019392505050565b600033610764858285610d2d565b61076f858585610d8e565b60019150505b9392505050565b6000908152600080516020611bfa833981519152602052604090206001015490565b6107a78261077c565b6107b081610ded565b6107ba8383610df7565b50505050565b6001600160a01b03811633146107e95760405163334bd91960e11b815260040160405180910390fd5b6107f38282610e9c565b505050565b600080516020611bda83398151915261081081610ded565b610818610f18565b50565b7f9f2df0fed2c77648de5860a4cc508cd0818c85b8b8a1ab4ceeef8d981c8956a661084581610ded565b6001600160a01b0383166108a05760405162461bcd60e51b815260206004820152601b60248201527f43616e6e6f74206d696e7420746f207a65726f2061646472657373000000000060448201526064015b60405180910390fd5b6b033b2e3c9fd0803ce8000000826000546108bb9190611a3b565b11156109095760405162461bcd60e51b815260206004820152601c60248201527f45786365656473206d6178696d756d20746f6b656e20737570706c79000000006044820152606401610897565b8160008082825461091a9190611a3b565b909155506107f390508383610f78565b6108183382610fae565b61093c610fe4565b6109458261108b565b61094f82826110b5565b5050565b600061095d611172565b50600080516020611bba83398151915290565b7f3c11d16cbaffd01df69ce1c404f6340ee057498f5f00246190ea54220576a84861099a81610ded565b6107f38383610fae565b600080516020611bda8339815191526109bc81610ded565b6108186111bb565b6000918252600080516020611bfa833981519152602090815260408084206001600160a01b0393909316845291905290205460ff1690565b7f52c63247e1f47db19d5ce0460030c497f067ca4cebf71ba98eeadabe20bace048054606091600080516020611b9a833981519152916106ba90611a01565b60003361074c818585610d8e565b7ff0c57e16840df040f15088dc2f81fe391c3923bec73e23a9662efc9c229c6a008054600160401b810460ff16159067ffffffffffffffff16600081158015610a8f5750825b905060008267ffffffffffffffff166001148015610aac5750303b155b905081158015610aba575080155b15610ad85760405163f92ee8a960e01b815260040160405180910390fd5b845467ffffffffffffffff191660011785558315610b0257845460ff60401b1916600160401b1785555b6001600160a01b038616610b585760405162461bcd60e51b815260206004820152601c60248201527f41646d696e20616464726573732063616e6e6f74206265207a65726f000000006044820152606401610897565b610ba26040518060400160405280600c81526020016b2937bc37b737102a37b5b2b760a11b815250604051806040016040528060048152602001632927ac2760e11b815250611204565b610baa611216565b610bb261121e565b610bba611216565b610bc2611216565b610bcd600087610df7565b50610be6600080516020611bda83398151915287610df7565b50610c117f9f2df0fed2c77648de5860a4cc508cd0818c85b8b8a1ab4ceeef8d981c8956a687610df7565b50610c3c7f3c11d16cbaffd01df69ce1c404f6340ee057498f5f00246190ea54220576a84887610df7565b50610c677f189ab7a9244df0848122154315af71fe140f3db0fe014031783b0946b8c9d2e387610df7565b50600080558315610cb257845460ff60401b19168555604051600181527fc7f505b2f371ae2175ee4913f4499e1f2633a7b5936321eed1cdaeb6115181d29060200160405180910390a15b505050505050565b610cc38261077c565b610ccc81610ded565b6107ba8383610e9c565b6001600160a01b0391821660009081527f52c63247e1f47db19d5ce0460030c497f067ca4cebf71ba98eeadabe20bace016020908152604080832093909416825291909152205490565b6107f3838383600161122e565b6000610d398484610cd6565b90506000198110156107ba5781811015610d7f57604051637dc7a0d960e11b81526001600160a01b03841660048201526024810182905260448101839052606401610897565b6107ba8484848403600061122e565b6001600160a01b038316610db857604051634b637e8f60e11b815260006004820152602401610897565b6001600160a01b038216610de25760405163ec442f0560e01b815260006004820152602401610897565b6107f3838383611316565b6108188133611321565b6000600080516020611bfa833981519152610e1284846109c4565b610e92576000848152602082815260408083206001600160a01b03871684529091529020805460ff19166001179055610e483390565b6001600160a01b0316836001600160a01b0316857f2f8788117e7eff1d82e926ec794901d17c78024a50270940304540a733656f0d60405160405180910390a46001915050610675565b6000915050610675565b6000600080516020611bfa833981519152610eb784846109c4565b15610e92576000848152602082815260408083206001600160a01b0387168085529252808320805460ff1916905551339287917ff6391f5c32d9c69d2a47ea670b442974b53935d1edc7fd64eb21e047a839171b9190a46001915050610675565b610f2061135a565b600080516020611c1a833981519152805460ff191681557f5db9ee0a495bf2e6ff9c91a7834c1ba4fdd244a5e8aa4e537bd38aeae4b073aa335b6040516001600160a01b03909116815260200160405180910390a150565b6001600160a01b038216610fa25760405163ec442f0560e01b815260006004820152602401610897565b61094f60008383611316565b6001600160a01b038216610fd857604051634b637e8f60e11b815260006004820152602401610897565b61094f82600083611316565b306001600160a01b037f000000000000000000000000000000000000000000000000000000000000000016148061106b57507f00000000000000000000000000000000000000000000000000000000000000006001600160a01b031661105f600080516020611bba833981519152546001600160a01b031690565b6001600160a01b031614155b156110895760405163703e46dd60e11b815260040160405180910390fd5b565b7f189ab7a9244df0848122154315af71fe140f3db0fe014031783b0946b8c9d2e361094f81610ded565b816001600160a01b03166352d1902d6040518163ffffffff1660e01b8152600401602060405180830381865afa92505050801561110f575060408051601f3d908101601f1916820190925261110c91810190611a5c565b60015b61113757604051634c9c8ce360e01b81526001600160a01b0383166004820152602401610897565b600080516020611bba833981519152811461116857604051632a87526960e21b815260048101829052602401610897565b6107f3838361138a565b306001600160a01b037f000000000000000000000000000000000000000000000000000000000000000016146110895760405163703e46dd60e11b815260040160405180910390fd5b6111c36113e0565b600080516020611c1a833981519152805460ff191660011781557f62e78cea01bee320cd4e420270b5ea74000d11b0c9f74754ebdbfc544b05a25833610f5a565b61120c611411565b61094f828261145a565b611089611411565b611226611411565b6110896114ab565b600080516020611b9a8339815191526001600160a01b0385166112675760405163e602df0560e01b815260006004820152602401610897565b6001600160a01b03841661129157604051634a1406b160e11b815260006004820152602401610897565b6001600160a01b0380861660009081526001830160209081526040808320938816835292905220839055811561130f57836001600160a01b0316856001600160a01b03167f8c5be1e5ebec7d5bd14f71427d1e84f3dd0314c0f7b2291e5b200ac8c7c3b9258560405161130691815260200190565b60405180910390a35b5050505050565b6107f38383836114cc565b61132b82826109c4565b61094f5760405163e2517d3f60e01b81526001600160a01b038216600482015260248101839052604401610897565b600080516020611c1a8339815191525460ff1661108957604051638dfc202b60e01b815260040160405180910390fd5b611393826114df565b6040516001600160a01b038316907fbc7cd75a20ee27fd9adebab32041f755214dbc6bffa90cc0225b39da2e5c2d3b90600090a28051156113d8576107f38282611544565b61094f6115ba565b600080516020611c1a8339815191525460ff16156110895760405163d93c066560e01b815260040160405180910390fd5b7ff0c57e16840df040f15088dc2f81fe391c3923bec73e23a9662efc9c229c6a0054600160401b900460ff1661108957604051631afcd79f60e31b815260040160405180910390fd5b611462611411565b600080516020611b9a8339815191527f52c63247e1f47db19d5ce0460030c497f067ca4cebf71ba98eeadabe20bace0361149c8482611abd565b50600481016107ba8382611abd565b6114b3611411565b600080516020611c1a833981519152805460ff19169055565b6114d46113e0565b6107f38383836115d9565b806001600160a01b03163b60000361151557604051634c9c8ce360e01b81526001600160a01b0382166004820152602401610897565b600080516020611bba83398151915280546001600160a01b0319166001600160a01b0392909216919091179055565b6060600080846001600160a01b0316846040516115619190611b7d565b600060405180830381855af49150503d806000811461159c576040519150601f19603f3d011682016040523d82523d6000602084013e6115a1565b606091505b50915091506115b1858383611717565b95945050505050565b34156110895760405163b398979f60e01b815260040160405180910390fd5b600080516020611b9a8339815191526001600160a01b038416611615578181600201600082825461160a9190611a3b565b909155506116879050565b6001600160a01b038416600090815260208290526040902054828110156116685760405163391434e360e21b81526001600160a01b03861660048201526024810182905260448101849052606401610897565b6001600160a01b03851660009081526020839052604090209083900390555b6001600160a01b0383166116a55760028101805483900390556116c4565b6001600160a01b03831660009081526020829052604090208054830190555b826001600160a01b0316846001600160a01b03167fddf252ad1be2c89b69c2b068fc378daa952ba7f163c4a11628f55a4df523b3ef8460405161170991815260200190565b60405180910390a350505050565b60608261172c5761172782611773565b610775565b815115801561174357506001600160a01b0384163b155b1561176c57604051639996b31560e01b81526001600160a01b0385166004820152602401610897565b5080610775565b8051156117835780518082602001fd5b60405163d6bda27560e01b815260040160405180910390fd5b6000602082840312156117ae57600080fd5b81356001600160e01b03198116811461077557600080fd5b60005b838110156117e15781810151838201526020016117c9565b50506000910152565b60208152600082518060208401526118098160408501602087016117c6565b601f01601f19169190910160400192915050565b80356001600160a01b038116811461183457600080fd5b919050565b6000806040838503121561184c57600080fd5b6118558361181d565b946020939093013593505050565b60008060006060848603121561187857600080fd5b6118818461181d565b925061188f6020850161181d565b9150604084013590509250925092565b6000602082840312156118b157600080fd5b5035919050565b600080604083850312156118cb57600080fd5b823591506118db6020840161181d565b90509250929050565b634e487b7160e01b600052604160045260246000fd5b6000806040838503121561190d57600080fd5b6119168361181d565b9150602083013567ffffffffffffffff8082111561193357600080fd5b818501915085601f83011261194757600080fd5b813581811115611959576119596118e4565b604051601f8201601f19908116603f01168101908382118183101715611981576119816118e4565b8160405282815288602084870101111561199a57600080fd5b8260208601602083013760006020848301015280955050505050509250929050565b6000602082840312156119ce57600080fd5b6107758261181d565b600080604083850312156119ea57600080fd5b6119f38361181d565b91506118db6020840161181d565b600181811c90821680611a1557607f821691505b602082108103611a3557634e487b7160e01b600052602260045260246000fd5b50919050565b8082018082111561067557634e487b7160e01b600052601160045260246000fd5b600060208284031215611a6e57600080fd5b5051919050565b601f8211156107f3576000816000526020600020601f850160051c81016020861015611a9e5750805b601f850160051c820191505b81811015610cb257828155600101611aaa565b815167ffffffffffffffff811115611ad757611ad76118e4565b611aeb81611ae58454611a01565b84611a75565b602080601f831160018114611b205760008415611b085750858301515b600019600386901b1c1916600185901b178555610cb2565b600085815260208120601f198616915b82811015611b4f57888601518255948401946001909101908401611b30565b5085821015611b6d5787850151600019600388901b60f8161c191681555b5050505050600190811b01905550565b60008251611b8f8184602087016117c6565b919091019291505056fe52c63247e1f47db19d5ce0460030c497f067ca4cebf71ba98eeadabe20bace00360894a13ba1a3210667c828492db98dca3e2076cc3735a920a3ca505d382bbc65d7a28e3265b37a6474929f336521b332c1681b933f6cb9f3376673440d862a02dd7bc7dec4dceedda775e58dd541e08a116c6c53815c0bd028192f7b626800cd5ed15c6e187e77e9aee88184c21f4f2182ab5827cb3b7e07fbedcd63f03300a2646970667358221220cd63f26c21b3276e38e3fc8083972d130adcef5b8c797733dad4e67fa8ff8e1064736f6c63430008160033",
  "linkReferences": {},
  "deployedLinkReferences": {}
}